                                                                                                                                                                                                                                                                                                                                                                                                 F\
1F 002305560001741PRISMA CONSTRUCOES E MONTAGENS LTDA                                                                                                                   CONSTRUTORA PRISMA                                     082015020973                                                                                                                                2062199410064120400RUA                 GENERAL CAMARA                                              18    SALA 303                                                                                                                                                    25 DE AGOSTO                                      25070340RJ5833DUQUE DE CAXIAS                                                                                                                                                                                          49000000000000000500000000000000000N                                                                                                                                                                                                                                                                                  F\
6F 00230556000174429950100000000000000000000000000000000000000000000000000000000000000000000000000000000000000000000000000000000000000000000000000000000000000000000000000000000000000000000000000000000000000000000000000000000000000000000000000000000000000000000000000000000000000000000000000000000000000000000000000000000000000000000000000000000000000000000000000000000000000000000000000000000000000000000000000000000000000000000000000000000000000000000000000000000000000000000000000000000000000000000000000000000000000000000000000000000000000000000000000000000000000000000000000000000000000000000000000000000000000000000000000000000000000000000000000000000000000000000000000000000000000000000000000000000000000                                                                                                                                                                                                                                                                                                                                                                                                                                                                                                         F\
1F 002305570001191OTICA ROSSANA LTDA                                                                                                                                    VISOTICA                                               042018090463                                                                                                                                2062198304204774100AVENIDA             ISMERINO S DE CARVALHO                                      586                                                                                                                                                               AEROPORTO                                         74350680GO9373GOIANIA                                                                                                                                                                                                  49000000000000000100000000000000000N                                                                                                                                                                                                                                                                                  F\
1F 002305580001631BIS IMPORTACAO E EXPORTACAO LTDA                                                                                                                                                                             082008123171                                                                                                                                2062199410074511103AVENIDA             IPIRANGA                                                    318   1 102 BL.A                                                                                                                                                  CENTRO                                            01046010SP7107SAO PAULO                                                                                                                                                                                                49000000000000000500000000000000000N                                                                                                                                                                                                                                                                                  F\
2F 002305580001632MARTIM FRANCISCO ARRUDAO                                                                                                                              000***586708**490000019940902                                                                         ***000000**CPF INVALIDO                                                00                                                                                                                                                                                                                                                                                                                                                                                                                                                                                                                                                                                                                                                                                                                                                                                                                                                                                        F\
2F 002305580001632LUIZ ANTONIO ARRUDAO                                                                                                                                  000***664988**490000019950113                                                                         ***000000**CPF INVALIDO                                                00                                                                                                                                                                                                                                                                                                                                                                                                                                                                                                                                                                                                                                                                                                                                                                                                                                                                                        F\
1F 002305590001081IGREJA EVANGELICA P ASSEMBLEIA DE DEUS PRIMITIVA                                                                                                                                                             082015020973                                                                                                                                3999199409229491000RUA                 EGIPCIA                                                     S/N   LT 7 QD 15                                                                                                                                                  JRD. MERITI                                       25555750RJ5901SAO JOAO DE MERITI                                                                                                                                                                                       16000000000000000500000000000000000N                                                                                                                                                                                                                                                                                  F\
2F 002305590001082JAPURANAN FERREIRA DE MORAES                                                                                                                          000***869227**160000020050912                                                                         ***000000**CPF INVALIDO                                                00                                                                                                                                                                                                                                                                                                                                                                                                                                                                                                                                                                                                                                                                                                                                                                                                                                                                                        F\
1F 002305600001321LORENA ASSESSORIA TECNICA LTDA                                                                                                                                                                               082008123171                                                                                                                                2062199409307311400RUA                 PAULO BARDOSA                                               129   SOBRELOJA 6                                                                                                                                                 CENTRO                                            25620100RJ5877PETROPOLIS                                                                                                                                                                                               49000000000000000500000000000000000N                                                                                                                                                                                                                                                                                  F\
1F 002305610001871SILOPORTEP REPRESENTACOES EM GERAL S/C LTDA                                                                                                           CHATEAU DES AMI                                        042019011163                                                                                                                                2240199410044619200RUA                 DR ALENCAR LIMA                                             35    SALA 114                                                                                                                                                    CENTRO                                            25620050RJ5877PETROPOLIS                                                                                                                                                                                               28000000000000000100000000000000000N                                                                                                                                                                                                                                                                                  F\
1F 002305620001211PAULO FERNANDES ALFREDO DA SILVA                                                                                                                                                                             081994100709                                                                                                                                2135199410074774100RODOVIA             BR 101 SUL KM 70                                            S/N   GP 63 AREAS 37 A 40                                                                                                                                         CURADO                                            50910520PE2531RECIFE                                                                                                                                                                                                   50000000000000000500000000000000000N                                                                                                                                                                                                                                                                                  F\
1F 002305630001761ADRIANA ALVIM VAZ                                                                                                                                     CONSTRUINDO O ABC-CENTRO EDUCACIONAL                   081994100701                                                                                                                                4014199410078512100RUA                 ANTONIO RANGEL                                              279                                                                                                                                                               ENCRUZILHADA                                      52030090PE2531RECIFE                                                                                                                                                                                                   34000000000000000500000000000000000N                                                                                                                                                                                                                                                                                  F\
1F 002305640001101PAULO SERGIO JERICO BEZERRA                                                                                                                           REGINA CONFECCOES                                      042019013063                                                                                                                                2135199410074781400RUA                 DIOSCORO DE SA GONZAGA                                      251                                                                                                                                                               CENTRO                                            56380000PE2551SANTA MARIA DA BOA VISTA                                                                                                                                                                                 50000000000000000500000000000000000N                                                                                                                                                                                                                                                                                  F\
1F 002305650001651PAULO BRAULIO SOUZA                                                                                                                                   ACOUGUE SAO PAULO                                      082008123171                                                                                                                                2135198304204722901RUA                 MARAVILHA                                                   S/N                                                                                                                                                               CENTRO                                            73860000GO9591SAO DOMINGOS                                                                                                                                                                                             50000000000000000500000000000000000N                                                                                                                                                                                                                                                                                  F\
1F 002305660001001WALDECI SANTANA CARLOS DE MARIA                                                                                                                       GOTA DAGUA                                             081997121001                                                                                                                                2135199410074713004RUA                 L                                                           16    A                                                                                                                                                           AREIA BRANCA                                      56332175PE2521PETROLINA                                                                                                                                                                                                50000000000000000500000000000000000N                                                                                                                                                                                                                                                                                  F\
1F 002305670001541HOTEL LACAZZONA LTDA                                                                                                                                  HOTEL LACAZZONA                                        022002091400                                                                                                                                2062199410075510801RODOVIA             BR 232 KM 180                                               1340                                                                                                                                                              COHAB I                                           55158090PE2333BELO JARDIM                                       81  3726271081  37262281                                                                                                                               49000000040000000172007070100000000N                                                                                                                                                                                                                                                                                  F\
2F 002305670001542MARIA NAZARE LEITE SANTOS                                                                                                                             000***893254**490000020130221                                                                         ***000000**CPF INVALIDO                                                00                                                                                                                                                                                                                                                                                                                                                                                                                                                                                                                                                                                                                                                                                                                                                                                                                                                                                        F\
2F 002305670001542GLEYDSON LEITE SANTOS                                                                                                                                 000***853684**220000020130221                                                                         ***000000**CPF INVALIDO                                                00                                                                                                                                                                                                                                                                                                                                                                                                                                                                                                                                                                                                                                                                                                                                                                                                                                                                                        F\
1F 002305670002352HOTEL LACAZZONA LTDA                                                                                                                                  LANCHONETE BELO PETRO                                  082004081901                                                                                                                                2062199907135611203                    ALTO DA PALESTINA                                           S/N   BR 232 POSTO BR                                                                                                                                             SANTO ANTONIO                                     55150001PE2333BELO JARDIM                                                                                                                                                                                              49000000000000000172007070100000000                        00000000                                                                                                                                                                                                                                                   F\
2F 002305670002352MARIA NAZARE LEITE SANTOS                                                                                                                             000***893254**490000020130221                                                                         ***000000**CPF INVALIDO                                                00                                                                                                                                                                                                                                                                                                                                                                                                                                                                                                                                                                                                                                                                                                                                                                                                                                                                                        F\
2F 002305670002352GLEYDSON LEITE SANTOS                                                                                                                                 000***853684**220000020130221                                                                         ***000000**CPF INVALIDO                                                00                                                                                                                                                                                                                                                                                                                                                                                                                                                                                                                                                                                                                                                                                                                                                                                                                                                                                        F\
1F 002305670003162HOTEL LACAZZONA LTDA                                                                                                                                  LANCHONETE SERVE BEM                                   082002112801                                                                                                                                2062199908045611203                    ALTO DA PALESTINA BR 232 POSTO TEXACO                       SN                                                                                                                                                                SANTO ANTONIO                                     55150001PE2333BELO JARDIM                                                                                                                                                                                              49000000000000000172007070100000000                        00000000                                                                                                                                                                                                                                                   F\
2F 002305670003162GLEYDSON LEITE SANTOS                                                                                                                                 000***853684**220000020130221                                                                         ***000000**CPF INVALIDO                                                00                                                                                                                                                                                                                                                                                                                                                                                                                                                                                                                                                                                                                                                                                                                                                                                                                                                                                        F\
2F 002305670003162MARIA NAZARE LEITE SANTOS                                                                                                                             000***893254**490000020130221                                                                         ***000000**CPF INVALIDO                                                00                                                                                                                                                                                                                                                                                                                                                                                                                                                                                                                                                                                                                                                                                                                                                                                                                                                                                        F\
1F 002305680001071ACTY COMERCIO E REPRESENTACOES LTDA                                                                                                                   ACTY                                                   081998061201                                                                                                                                2062199410074781400ESTRADA             DO ARRAIAL                                                  2948  LOJA 13                                                                                                                                                     CASA AMARELA                                      52070000PE2531RECIFE                                                                                                                                                                                                   49000000000000000500000000000000000N                                                                                                                                                                                                                                                                                  F\
1F 002305690001431MACAL MONTEIRO ATACADISTA DE CALCADOS LTDA                                                                                                                                                                   082008123171                                                                                                                                2062199410074781400RUA                 1 DE MAIO                                                   61                                                                                                                                                                CENTRO                                            55016080PE2381CARUARU                                                                                                                                                                                                  49000000000000000500000000000000000N                                                                                                                                                                                                                                                                                  F\
1F 002305700001781SUPERMERCADO PARNAMIRIM LTDA                                                                                                                                                                                 042018091163                                                                                                                                2062199410074711302RUA                 VINTE E UM                                                  05    C                                                                                                                                                           COHAB IV                                          56312210PE2521PETROLINA                                                                                                                                                                                                49000000000000000100000000000000000N                                                                                                                                                                                                                                                                                  F\
2F 002305700001782SOLANGE MARIA ALVES MORORO                                                                                                                            000***683384**490000019941010                                                                         ***000000**CPF INVALIDO                                                00                                                                                                                                                                                                                                                                                                                                                                                                                                                                                                                                                                                                                                                                                                                                                                                                                                                                                        F\
2F 002305700001782JOSINEIDE SILVANIA ALVES LIMA                                                                                                                         000***723364**490000019941010                                                                         ***000000**CPF INVALIDO                                                00                                                                                                                                                                                                                                                                                                                                                                                                                                                                                                                                                                                                                                                                                                                                                                                                                                                                                        F\
2F 002305700001782FRANCISCA EDNEIDE DAS GRACAS ALVES                                                                                                                    000***271644**490000019911010                                                                         ***000000**CPF INVALIDO                                                00                                                                                                                                                                                                                                                                                                                                                                                                                                                                                                                                                                                                                                                                                                                                                                                                                                                                                        F\
1F 002305710001121COMERCIO DE CALCADOS XAVIER LTDA                                                                                                                      REACAO CALCADOS                                        082007092854                                                                                                                                2062199410074782201RUA                 LUIZ PAES                                                   19                                                                                                                                                                CENTRO                                            55016080PE2381CARUARU                                                                                                                                                                                                  49000000000000000500000000000000000N                                                                                                                                                                                                                                                                                  F\
1F 002305720001671CARUARU LAJES LTDA                                                                                                                                                                                           042019011663                                                                                                                                2062199410072330301RUA                 DR JOSE R CAVALCANTE                                        419   TERREO                                                                                                                                                      SAO FRANCISCO                                     55016080PE2381CARUARU                                                                                                                                                                                                  49000000000000000162007070120101231N                                                                                                                                                                                                                                                                                  F\
2F 002305720001672SEVERINO FERNANDES DA SILVA                                                                                                                           000***894168**490000019941007                                                                         ***000000**CPF INVALIDO                                                00                                                                                                                                                                                                                                                                                                                                                                                                                                                                                                                                                                                                                                                                                                                                                                                                                                                                                        F\
2F 002305720001672MARIA DO CARMO DA SILVA FERNANDES                                                                                                                     000***068944**490000019941007                                                                         ***000000**CPF INVALIDO                                                00                                                                                                                                                                                                                                                                                                                                                                                                                                                                                                                                                                                                                                                                                                                                                                                                                                                                                        F\
1F 002305730001011PRETEC TECNOLOGIA EM PREMOLDADOS E ENGENHARIA LTDA                                                                                                    PRETEC                                                 082008123171                                                                                                                                2062198304208888888AVENIDA             SEBASTIAO BRASILEIRO                                        72                                                                                                                                                                JARDIM PLANALTO                                   74465539GO9373GOIANIA                                                                                                                                                                                                  49000000000000000500000000000000000N                                                                                                                                                                                                                                                                                  F\
1F 002305740001561PONTE-CAR PECAS, PARAFUSOS E VEICULOS LTDA                                                                                                            RECONORT                                               042018102563                                                                                                                                2062199410074530703AVENIDA             CORONEL FREDERICO LUNDGREN                                  667   LOJA  02                                                                                                                                                    RIO DOCE                                          53150000PE2491OLINDA                                            81                                                                                                                                                                                                                                                                                                                                                                                                                                                                             F\
2F 002305740001562MARCOS ROBERTO GOMES DA SILVA                                                                                                                         000***136394**490000020080721                                                                         ***000000**CPF INVALIDO                                                00                                                                                                                                                                                                                                                                                                                                                                                                                                                                                                                                                                                                                                                                                                                                                                                                                                                                                        F\
6F 00230574000156474400177110004520001000000000000000000000000000000000000000000000000000000000000000000000000000000000000000000000000000000000000000000000000000000000000000000000000000000000000000000000000000000000000000000000000000000000000000000000000000000000000000000000000000000000000000000000000000000000000000000000000000000000000000000000000000000000000000000000000000000000000000000000000000000000000000000000000000000000000000000000000000000000000000000000000000000000000000000000000000000000000000000000000000000000000000000000000000000000000000000000000000000000000000000000000000000000000000000000000000000000000000000000000000000000000000000000000000000000000000000000000000000000000000000000000                                                                                                                                                                                                                                                                                                                                                                                                                                                                                                         F\
1F 002305750001091MERCANTIL DE VARIEDADES LTDA                                                                                                                                                                                 082015020973                                                                                                                                2062199410074641901RUA                 ANDRE VIDAL DE NEGREIROS                                    100   SALA F                                                                                                                                                      CENTRO                                            55900000PE2423GOIANA                                            81  37218594            81  37218594                                                                                                                   49000000060000000500000000000000000N                                                                                                                                                                                                                                                                                  F\
2F 002305750001092ANDERSON BEZERRA XAVIER DA CAMARA                                                                                                                     000***523834**220000020060721                                                                         ***000000**CPF INVALIDO                                                00                                                                                                                                                                                                                                                                                                                                                                                                                                                                                                                                                                                                                                                                                                                                                                                                                                                                                        F\
2F 002305750001092MONICA MOREIRA DA SILVA                                                                                                                               000***450554**490000020060126                                                                         ***000000**CPF INVALIDO                                                00                                                                                                                                                                                                                                                                                                                                                                                                                                                                                                                                                                                                                                                                                                                                                                                                                                                                                        F\
6F 00230575000109478310147741004643502464270100000000000000000000000000000000000000000000000000000000000000000000000000000000000000000000000000000000000000000000000000000000000000000000000000000000000000000000000000000000000000000000000000000000000000000000000000000000000000000000000000000000000000000000000000000000000000000000000000000000000000000000000000000000000000000000000000000000000000000000000000000000000000000000000000000000000000000000000000000000000000000000000000000000000000000000000000000000000000000000000000000000000000000000000000000000000000000000000000000000000000000000000000000000000000000000000000000000000000000000000000000000000000000000000000000000000000000000000000000000000000000                                                                                                                                                                                                                                                                                                                                                                                                                                                                                                         F\
1F 002305760001451PORTO NAUTICA COMERCIO REPRESENTACOES LTDA                                                                                                                                                                   042019013063                                                                                                                                2062199410074789099RUA                 DR JULIO DE MELO                                            538   B                                                                                                                                                           CENTRO                                            56332175PE2521PETROLINA                                                                                                                                                                                                49000000000000000182007070120111231N                                                                                                                                                                                                                                                                                  F\
2F 002305760001452IZABEL CRISTINA GONDIM DE MENDONCA                                                                                                                    000***832584**490000019950324                                                                         ***000000**CPF INVALIDO                                                00                                                                                                                                                                                                                                                                                                                                                                                                                                                                                                                                                                                                                                                                                                                                                                                                                                                                                        F\
2F 002305760001452CESAR MALAN LEDA REGO                                                                                                                                 000***287405**220000019970707                                                                         ***000000**CPF INVALIDO                                                00                                                                                                                                                                                                                                                                                                                                                                                                                                                                                                                                                                                                                                                                                                                                                                                                                                                                                        F\
1F 002305770001901NOBRY-ALIMENTOS LTDA                                                                                                                                  NOBRYNHO                                               042019013063                                                                                                                                2062199410071052000RUA                 NAPOLEAO GALVAO                                             292                                                                                                                                                               SANTO ANTONIO                                     55296010PE2419GARANHUNS                                                                                                                                                                                                49000000000000000500000000000000000N                                                                                                                                                                                                                                                                                  F\
1F 002305780001341M P SOARES & CIA LTDA                                                                                                                                                                                        042019013063                                                                                                                                2062199410074781400AVENIDA             ESTACIO COIMBRA                                             736   LOJA 06                                                                                                                                                     CENTRO                                            55815000PE2379CARPINA                                                                                                                                                                                                  49000000000000000100000000000000000N                                                                                                                                                                                                                                                                                  F\
1F 002305790001891CARLA IMPORTACOES LIMITADA                                                                                                                            CARLA IMPORTACOES                                      082004101054                                                                                                                                2062199410074774100AVENIDA             CEL ANTONIO JAPIASSU                                        752   LOJA 06                                                                                                                                                     CENTRO                                            56512600PE2323ARCOVERDE                                                                                                                                                                                                49000000000000000100000000000000000N                                                                                                                                                                                                                                                                                  F\
1F 002305800001031REFORMADORA DE PNEUS SANTA TEREZINHA LTDA                                                                                                                                                                    082008123171                                                                                                                                2062199410079529102RODOVIA             PERIMENTRAL KM-92                                           S/N                                                                                                                                                               BOA VISTA                                         55293310PE2419GARANHUNS                                                                                                                                                                                                49000000000000000500000000000000000N                                                                                                                                                                                                                                                                                  F\
1F 002305810001581JOSE JOAQUIM ADORNO O GOIANO                                                                                                                          TORNEADORA JA                                          082013110601                                                                                                                                2135198304202542000RUA                 MINAS GERAIS                                                S/N   QD 37 LT 10                                                                                                                                                 BELO HORIZONTE                                    76420000GO9489NIQUELANDIA                                                                                                                                                                                              50000000000000000162007070120131106N                                                                                                                                                                                                                                                                                  F\
1F 002305820001001ML TRANSPORTES LTDA                                                                                                                                                                                          082008123171                                                                                                                                2062199410074930201RUA                 AGAMENON MAGALHAES                                          137                                                                                                                                                               CENTRO                                            56280000PE2321ARARIPINA                                                                                                                                                                                                49000000000000000500000000000000000N                                                                                                                                                                                                                                                                                  F\
1F 002305830001471AGRESTAGRO COM E REP LTDA                                                                                                                                                                                    081996070301                                                                                                                                2062199410074644301PRACA               HIST ADALBERTO PAIVA                                        02                                                                                                                                                                CENTRO                                            55370000PE2559SAO BENTO DO UNA                                                                                                                                                                                         49000000000000000500000000000000000N                                                                                                                                                                                                                                                                                  F\
1F 002305840001911ERNESTO VIEIRA REPRESENTACOES LTDA                                                                                                                                                                           082008123171                                                                                                                                2062199410078130300RUA                 SEVERINO L ALBUQUERQUE                                      120   LOJA 02                                                                                                                                                     BAIRRO NOVO                                       55805000PE2609TRACUNHAEM                                                                                                                                                                                               49000000000000000500000000000000000N                                                                                                                                                                                                                                                                                  F\
1F 002305850001361IMPORTADORA CREATI LTDA                                                                                                                                                                                      082008123171                                                                                                                                2062199410074649401RUA                 ERNESTO DE P SANTOS                                         960   SALA 501                                                                                                                                                    BOA VIAGEM                                        51021330PE2531RECIFE                                                                                                                                                                                                   49000000000000000500000000000000000N                                                                                                                                                                                                                                                                                  F\
1F 002305860001801PALO PARTICIPACOES LTDA                                                                                                                               BABY HOTEL                                             081997052001                                                                                                                                2062199410075590603RUA                 PADRE BERNARDINO PESSOA                                     743                                                                                                                                                               BOA VIAGEM                                        51020210PE2531RECIFE                                                                                                                                                                                                   49000000000000000500000000000000000N                                                                                                                                                                                                                                                                                  F\
1F 002305870001251MERCADINHO RELUZIR LTDA                                                                                                                               MERCADINHO RELUZIR                                     082008123171                                                                                                                                2062199410074712100RUA                 21 DE ABRIL                                                 849                                                                                                                                                               AFOGADOS                                          50820000PE2531RECIFE                                                                                                                                                                                                   49000000000000000500000000000000000N                                                                                                                                                                                                                                                                                  F\
1F 002305880001701KADOSHI & ASSOCIADOS LTDA                                                                                                                                                                                    082015020973                                                                                                                                2062199410074693100RUA                 DA PALMA                                                    167   SALA 810                                                                                                                                                    SANTO ANTONIO                                     50010460PE2531RECIFE                                                                                                                                                                                                   49000000000000000500000000000000000N                                                                                                                                                                                                                                                                                  F\
2F 002305880001702DORIEL BEZERRA DIAS                                                                                                                                   000***978035**490000019940922                                                                         ***000000**CPF INVALIDO                                                00                                                                                                                                                                                                                                                                                                                                                                                                                                                                                                                                                                                                                                                                                                                                                                                                                                                                                        F\
2F 002305880001702MARCILIO FALCAO CAVALCANTI                                                                                                                            000***131104**220000019970110                                                                         ***000000**CPF INVALIDO                                                00                                                                                                                                                                                                                                                                                                                                                                                                                                                                                                                                                                                                                                                                                                                                                                                                                                                                                        F\
2F 002305880001702CARLOS ALBERTO GONCALVES DE ALMEIDA                                                                                                                   000***605434**220000019940922                                                                         ***000000**CPF INVALIDO                                                00                                                                                                                                                                                                                                                                                                                                                                                                                                                                                                                                                                                                                                                                                                                                                                                                                                                                                        F\
2F 002305880001702FERNANDO PEREIRA TEIXEIRA LEITE                                                                                                                       000***983504**220000019950727                                                                         ***000000**CPF INVALIDO                                                00                                                                                                                                                                                                                                                                                                                                                                                                                                                                                                                                                                                                                                                                                                                                                                                                                                                                                        F\
6F 0023058800017046915000000000000000000000000000000000000000000000000000000000000000000000000000000000000000000000000000000000000000000000000000000000000000000000000000000000000000000000000000000000000000000000000000000000000000000000000000000000000000000000000000000000000000000000000000000000000000000000000000000000000000000000000000000000000000000000000000000000000000000000000000000000000000000000000000000000000000000000000000000000000000000000000000000000000000000000000000000000000000000000000000000000000000000000000000000000000000000000000000000000000000000000000000000000000000000000000000000000000000000000000000000000000000000000000000000000000000000000000000000000000000000                                                                                                                                                                                                                                                                                                                                                                                                                                                                                                                                   F\
2F 002305890001142SERGIO LUIZ GARCIA FERRAO                                                                                                                             000***468440**490000019941010                                                                         ***000000**CPF INVALIDO                                                00                                                                                                                                                                                                                                                                                                                                                                                                                                                                                                                                                                                                                                                                                                                                                                                                                                                                                        F\
1F 002305900001491E & E EVENTOS LTDA                                                                                                                                    STAR EVENTOS E PRODUCOES                               022019020500                                                                                                                                2062199410079001902AVENIDA             CONSELHEIRO AGUIAR                                          2738  SALA  0102                                                                                                                                                  BOA VIAGEM                                        510200                                                                                                                                                                                                                                                                                                                                                                                                                                                                                                                                         F\
2F 002305900001492LEONARDO MANOEL DO NASCIMENTO                                                                                                                         000***140764**490000020110620                                                                         ***000000**CPF INVALIDO                                                00                                                                                                                                                                                                                                                                                                                                                                                                                                                                                                                                                                                                                                                                                                                                                                                                                                                                                        F\
6F 00230590000149900190390019999001906731909977110007729202773909982997997739003000000000000000000000000000000000000000000000000000000000000000000000000000000000000000000000000000000000000000000000000000000000000000000000000000000000000000000000000000000000000000000000000000000000000000000000000000000000000000000000000000000000000000000000000000000000000000000000000000000000000000000000000000000000000000000000000000000000000000000000000000000000000000000000000000000000000000000000000000000000000000000000000000000000000000000000000000000000000000000000000000000000000000000000000000000000000000000000000000000000000000000000000000000000000000000000000000000000000000000  54270100PE2457JABOATAO DOS GUARARAPES                                                                                                                                                                                  49000000000000000500000000000000000N                                                                                                                                                                                                                                                                                  F\
6F 0023059100019381290000000000000000000000000000000000000000000000000000000000000000000000000000000000000000000000000000000000000000000000000000000000000000000000000000000000000000000000000000000000000000000000000000000000000000000000000000000000000000000000000000000000000000000000000000000000000000000000000000000000000000000000000000000000000000000000000000000000000000000000000000000000000000000000000000000000000000000000000000000000000000000000000000000000000000000000000000000000000000000000000000000000000000000000000000000000000000000000000000000000000000000000000000000000000000000000000000000000000000000000000000000000000000000000000000000000000000000000000      60712085CE1389FORTALEZA                                                                                                                                                                                                16000000000000000500000000000000000N                                                                                                                                                                                                                                                                                  F\
2F 002305920001382CLAUDIO GARCIA DE SOUZA                                                                                                                               000***128073**160000020050912                                                                         ***000000**CPF INVALIDO                                                00                                                                                                                                                                                                                                                                                                                                                                                                                                                                                                                                                                                                                                                                                                                                                                                                                                                                                        F\
6F 0023059200013894936009499500000000000000000000000000000000000000000000000000000000000000000000000000000000000000000000000000000000000000000000000000000000000000000000000000000000000000000000000000000000000000000000000000000000000000000000000000000000000000000000000000000000000000000000000000000000000000000000000000000000000000000000000000000000000000000000000000000000000000000000000000000000000000000000000000000000000000000000000000000000000000000000000000000000000000000000000000000000000000000000000000000000000000000000000000000000000000000000000000000000000000000000000000000000000000000000000000000000000000000000000000000000000000000000000000000000000            53403740PE2513PAULISTA                                          81  3372289781  34375683081 37624571                                                                                                                   49000000000000000382007070120130125N                                                                                                                                                                                                                                                                                  F\
2F 002305930001822PAULINA PEREZ RAMOS CAMPOS                                                                                                                            000***300914**490000020040107                                                                         ***000000**CPF INVALIDO                                                00                                                                                                                                                                                                                                                                                                                                                                                                                                                                                                                                                                                                                                                                                                                                                                                                                                                                                        F\
2F 002305930001822GABRIELA SAMPAIO MORAIS CAMPOS                                                                                                                        000***770314**490000020051230                                                                         ***000000**CPF INVALIDO                                                00                                                                                                                                                                                                                                                                                                                                                                                                                                                                                                                                                                                                                                                                                                                                                                                                                                                                                        F\
6F 00230593000182951180062091001813001181309947512020000000000000000000000000000000000000000000000000000000000000000000000000000000000000000000000000000000000000000000000000000000000000000000000000000000000000000000000000000000000000000000000000000000000000000000000000000000000000000000000000000000000000000000000000000000000000000000000000000000000000000000000000000000000000000000000000000000000000000000000000000000000000000000000000000000000000000000000000000000000000000000000000000000000000000000000000000000000000000000000000000000000000000000000000000000000000000000000000000000000000000000000000000000000000000000000000000000000000000000000000000                    61700000CE1319AQUIRAZ                                                                                                                                                                                                  16000000000000000500000000000000000N                                                                                                                                                                                                                                                                                  F\
2F 002305940001272HELIO DE SA PEREIRA BARREIRA                                                                                                                          000***690743**160000020050912                                                                         ***000000**CPF INVALIDO                                                00                                                                                                                                                                                                                                                                                                                                                                                                                                                                                                                                                                                                                                                                                                                                                                                                                                                                                        F\
1F 002305950001711CENTER DAS EMBALAGENS LTDA                                                                                                                                                                                   042018102563                                                                                                                                2062199410074761002RUA                 SAO JOAO                                                    513   ANEXO                                                                                                                                                       SAO JOSE                                          50020150PE2531RECIFE                                                                                                                                                                                                   49000000000000000100000000000000000N                                                                                                                                                                                                                                                                                  F\
1F 002305960001161TELEJATO COMERCIO E REPRESENTACOES LTDA                                                                                                                                                                      042018102563                                                                                                                                2062199410074520001ESTRADA             VELHA DE AGUA FRIA                                          978                                                                                                                                                               TAMARINEIRA                                       52111000PE2531RECIFE                                                                                                                                                                                                   49000000000000000100000000000000000N                                                                                                                                                                                                                                                                                  F\
6F 0023059600011645200024520003452000400000000000000000000000000000000000000000000000000000000000000000000000000000000000000000000000000000000000000000000000000000000000000000000000000000000000000000000000000000000000000000000000000000000000000000000000000000000000000000000000000000000000000000000000000000000000000000000000000000000000000000000000000000000000000000000000000000000000000000000000000000000000000000000000000000000000000000000000000000000000000000000000000000000000000000000000000000000000000000000000000000000000000000000000000000000000000000000000000000000000000000000000000000000000000000000000000000000000000000000000000000000                              52090330PE2531RECIFE                                                                                                                                                                                                   49000000000000000500000000000000000N                                                                                                                                                                                                                                                                                  F\
1F 002305980001051ENGESERV TERRAPLANAGEM LTDA                                                                                                                           ENGESERV TERRAPLANAGEM                                 082015020973                                                                                                                                2062199410077112000RUA                 COSTA MAIA                                                  300                                                                                                                                                               CORDEIRO                                          50711360PE2531RECIFE                                            81  30767052                                                                                                                                           49000000090000000500000000000000000N                                                                                                                                                                                                                                                                                  F\
2F 002305980001052JOSENILDO MARCELINO LISBOA                                                                                                                            000***867944**490000020120418                                                                         ***000000**CPF INVALIDO                                                00                                                                                                                                                                                                                                                                                                                                                                                                                                                                                                                                                                                                                                                                                                                                                                                                                                                                                        F\
2F 002305980001052SEVERINO DE ARRUDA SILVA SOARES                                                                                                                       000***745804**220000020120904                                                                         ***000000**CPF INVALIDO                                                00                                                                                                                                                                                                                                                                                                                                                                                                                                                                                                                                                                                                                                                                                                                                                                                                                                                                                        F\
}